:020000040800F2
:100000000000022005050008410300084F03000816
:10001000550300085B0300086103000800000000AE
:10002000000000000000000000000000670300085E
:100030007503000800000000830300089103000816
:100040005505000855050008550500085505000828
:10005000000000005505000855050008550500087A
:100060005505000855050008550500085505000808
:1000700055050008550500085505000855050008F8
:1000800055050008550500085505000855050008E8
:1000900055050008550500085505000855050008D8
:1000A00055050008550500085505000855050008C8
:1000B00055050008550500085505000855050008B8
:1000C00055050008550500085505000855050008A8
:1000D0005505000855050008550500085505000898
:1000E0005505000855050008550500085505000888
:1000F0005505000855050008550500085505000878
:100100005505000855050008550500085505000867
:100110005505000855050008550500085505000857
:100120005505000855050008550500085505000847
:100130005505000855050008550500085505000837
:100140005505000855050008550500085505000827
:100150005505000855050008550500085505000817
:100160005505000855050008550500085505000807
:1001700055050008550500085505000855050008F7
:1001800055050008550500080000000000000000AB
:10019000000000000000000000000000000000005F
:0801A000550500085505000893
:1001A80010B5054C237833B9044B13B10448AFF3A9
:1001B80000800123237010BD08000020000000000B
:1001C800E008000808B5034B1BB103490348AFF327
:1001D800008008BD000000000C000020E0080008B6
:1001E80080B500AF00F036F800F06CF8174B1B68CC
:1001F800012292B21146184600F038FA0346002B45
:10020800F4D0322000F07AF8104B1B68012292B229
:100218001146184600F02AFA0346002BE6D000BF24
:100228000A4B1B68012292B21146184600F01EFACA
:100238000346002BF4D1064B1B684FF4805292B250
:100248001146184600F02CFAD0E700BF0400002041
:100258000000002080B584B000AF0121082000F024
:1002680031FA01233B730023BB734FF48053BB6007
:100278000023FB7303237B73104B1B6807F10802F1
:100288001146184600F063F90121012000F01AFA1E
:1002980000233B710023BB7101233B600023FB71EA
:1002A80003237B71064B1B683A461146184600F03B
:1002B8004EF900BF1037BD4680BD00BF00000020CA
:1002C8000400002080B584B000AF0121102000F0A8
:1002D80019FA5323BB804FF6FF73BB603B1D1946C9
:1002E800054800F02FFA0121034800F0B1FA00BFD9
:1002F8001037BD4680BD00BF0010004080B582B0F9
:1003080000AF78600EE000210A4800F087FA00BFCD
:10031800084800F091FA0346B3F57A7FF8D37B6872
:10032800013B7B607B68002BEDD100BF00BF083725
:10033800BD4680BD0010004080B400AF00BFBD4680
:100348005DF8047B704780B400AFFEE780B400AF6F
:10035800FEE780B400AFFEE780B400AFFEE780B4EC
:1003680000AF00BFBD465DF8047B704780B400AFA6
:1003780000BFBD465DF8047B704780B400AF00BF86
:10038800BD465DF8047B704780B400AF00BFBD4632
:100398005DF8047B7047000080B500AF164BD3F8BA
:1003A8008830154A43F47003C2F88830134B1B6831
:1003B800124A43F001031360104B00229A600F4B5E
:1003C8001B680E4A23F0847323F4803313600B4BAD
:1003D8000B4A5A60094B1B68084A23F480231360B0
:1003E800064B0022DA6000F00DF8034B4FF0006274
:1003F8009A6000BF80BD00BF00ED00E000380240F9
:100408001030002480B483B000AF00237B60002349
:100418003B60364B1B68354A43F480331360334BDB
:100428001B6803F400333B607B6801337B603B68E7
:10043800002B03D17B68B3F5A04FF0D12B4B1B6881
:1004480003F40033002B02D001233B6001E00023BA
:100458003B603B68012B42D1244B1B6C234A43F081
:1004680080531364224B1B68214A43F440431360B2
:100478001E4B1E4A9B6893601C4B9B681B4A43F4A7
:1004880000439360194B9B68184A43F4A053936048
:10049800164B184A5A60154B1B68144A43F0807370
:1004A800136000BF114B1B6803F00073002BF9D0D9
:1004B800114B40F205721A600C4B9B680B4A23F0F3
:1004C80003039360094B9B68084A43F00203936057
:1004D80000BF064B9B6803F00C03082BF9D100BF43
:1004E8000C37BD465DF8047B704700BF00380240FA
:1004F8000070004019544007003C02400D488546F2
:10050800FFF74AFF0C480D490D4A002302E0D45872
:10051800C4500433C4188C42F9D30A4A0A4C002345
:1005280001E013600432A242FBD300F0B1F9FFF7F7
:1005380057FEFEE70000022000000020080000200F
:10054800000900080800002024000020FEE780B40D
:1005580087B000AF7860396000237B6100233B617E
:100568000023FB6000237B6176E001227B6902FAAD
:1005780003F33B613B681B683A691340FB60FA6808
:100588003B699A4265D17B681A687B695B000321E5
:1005980001FA03F3DB431A407B681A607B681A6828
:1005A8003B681B7919467B695B0001FA03F31A4320
:1005B8007B681A603B681B79012B03D03B681B7969
:1005C800022B2ED17B689A687B695B00032101FAB4
:1005D80003F3DB431A407B689A607B689A683B6840
:1005E8005B7919467B695B0001FA03F31A437B6860
:1005F8009A607B685A687B699BB2194601238B40D5
:10060800DB431A407B685A607B685B683A6892797A
:1006180011467A6992B201FA02F292B21A437B68E1
:100628005A607B68DA687B699BB25B00032101FA38
:1006380003F3DB431A407B68DA607B68DA683B685F
:10064800DB7919467B695B0001FA03F31A437B687F
:10065800DA607B6901337B617B690F2B85D900BF29
:1006680000BF1C37BD465DF8047B704780B485B079
:1006780000AF78600B467B800023FB737B681A69A8
:100688007B881340002B02D00123FB7301E0002379
:10069800FB73FB7B18461437BD465DF8047B704737
:1006A80080B483B000AF78600B467B807B685A6962
:1006B8007B885A407B685A6100BF0C37BD465DF89D
:1006C800047B704780B483B000AF78600B46FB7042
:1006D800FB78002B06D00A4B1A6B09497B68134339
:1006E8000B6306E0064B1A6B7B68DB430449134037
:1006F8000B6300BF0C37BD465DF8047B704700BF35
:100708000038024080B483B000AF78600B46FB70BD
:10071800FB78002B06D00A4B1A6C09497B681343F7
:100728000B6406E0064B1A6C7B68DB4304491340F4
:100738000B6400BF0C37BD465DF8047B704700BFF3
:100748000038024080B485B000AF7860396000237B
:10075800FB817B681B88FB817B68294A934213D005
:100768007B68284A93420FD07B68B3F1804F0BD047
:100778007B68254A934207D07B68244A934203D07A
:100788007B68234A934208D1FB8923F07003FB81DD
:100798003B685A88FB891343FB817B681D4A934257
:1007A8000CD07B681C4A934208D0FB8923F4407321
:1007B800FB813B681A89FB891343FB817B68FA89B3
:1007C8001A803B685A687B68DA623B681A887B68DB
:1007D8001A857B680A4A934203D07B68094A934288
:1007E80004D13B689B7A9AB27B681A867B6801229F
:1007F8009A8200BF1437BD465DF8047B704700BF7E
:1008080000000140000401400004004000080040CE
:10081800000C0040001000400014004080B483B079
:1008280000AF786039607B683A685A6200BF0C375D
:10083800BD465DF8047B704780B483B000AF786034
:100848007B685B6A18460C37BD465DF8047B7047C9
:1008580080B483B000AF78600B46FB70FB78002B48
:1008680008D07B681B889BB243F001039AB27B686F
:100878001A8007E07B681B889BB223F001039AB2B9
:100888007B681A8000BF0C37BD465DF8047B704753
:1008980070B50D4D0D4C641BA4100026A64209D15D
:1008A8000B4D0C4C00F018F8641BA4100026A6424F
:1008B80005D170BD55F8043B98470136EEE755F869
:1008C800043B98470136F2E7F8080008F8080008E2
:1008D800F8080008FC080008F8B500BFF8BC08BC18
:1008E8009E467047F8B500BFF8BC08BC9E467047E6
:0408F800CD01000826
:0408FC00A901000846
:08090000000C0240000002405F
:0400000508000505E5
:00000001FF
