:020000040800F2
:10000000000002200905000845030008530300080A
:10001000590300085F0300086503000800000000A2
:100020000000000000000000000000006B0300085A
:10003000790300080000000087030008950300080A
:100040005905000859050008590500085905000818
:10005000000000005905000859050008590500086E
:1000600059050008590500085905000859050008F8
:1000700059050008590500085905000859050008E8
:1000800059050008590500085905000859050008D8
:1000900059050008590500085905000859050008C8
:1000A00059050008590500085905000859050008B8
:1000B00059050008590500085905000859050008A8
:1000C0005905000859050008590500085905000898
:1000D0005905000859050008590500085905000888
:1000E0005905000859050008590500085905000878
:1000F0005905000859050008590500085905000868
:100100005905000859050008590500085905000857
:100110005905000859050008590500085905000847
:100120005905000859050008590500085905000837
:100130005905000859050008590500085905000827
:100140005905000859050008590500085905000817
:100150005905000859050008590500085905000807
:1001600059050008590500085905000859050008F7
:1001700059050008590500085905000859050008E7
:1001800059050008590500080000000000000000A3
:10019000000000000000000000000000000000005F
:0801A00059050008590500088B
:1001A80010B5054C237833B9044B13B10448AFF3A9
:1001B80000800123237010BD000000200000000013
:1001C800A405000808B5034B1BB103490348AFF366
:1001D800008008BD0000000004000020A4050008FD
:1001E80080B500AF00F024F800F05AF80E4B1B69F8
:1001F80003F00103012BF9D1322000F081F80A4BFA
:100208001B6903F00103012BF0D100BF064B1B69EA
:1002180003F00103012BF9D0044B5B69034A83F413
:1002280080535361E2E700BF00000240000C024027
:1002380080B400AF174B1B6B164A43F008031363D7
:10024800154B1B68144A23F040731360124B1B684C
:10025800114A43F0807313600F4B5B680E4A23F416
:10026800805353600B4B1B6B0A4A43F00103136323
:100278000A4B1B68094A23F003031360074BDB682A
:10028800064A23F00303D36000BFBD465DF8047B34
:10029800704700BF00380240000C024000000240D6
:1002A80080B400AF144B1B6C134A43F01003136463
:1002B800124B1B889BB2114A43F002039BB2138076
:1002C8000E4B53221A850D4B1B889BB20B4A23F009
:1002D80002039BB21380094B01229A82074B1B88A9
:1002E8009BB2064A43F001039BB2138000BFBD4690
:1002F8005DF8047B704700BF0038024000100040E2
:1003080080B483B000AF78600BE00B4B00225A62D8
:1003180000BF094B5B6AB3F57A7FFAD37B68013B70
:100328007B607B68002BF0D100BF00BF0C37BD4657
:100338005DF8047B704700BF0010004080B400AF38
:1003480000BFBD465DF8047B704780B400AFFEE790
:1003580080B400AFFEE780B400AFFEE780B400AF22
:10036800FEE780B400AF00BFBD465DF8047B704770
:1003780080B400AF00BFBD465DF8047B704780B411
:1003880000AF00BFBD465DF8047B704780B400AF86
:1003980000BFBD465DF8047B7047000080B500AF24
:1003A800164BD3F88830154A43F47003C2F88830E6
:1003B800134B1B68124A43F001031360104B0022D1
:1003C8009A600F4B1B680E4A23F0847323F4803322
:1003D80013600B4B0B4A5A60094B1B68084A23F4FD
:1003E80080231360064B0022DA6000F00DF8034BFF
:1003F8004FF000629A6000BF80BD00BF00ED00E0D2
:10040800003802401030002480B483B000AF0023CD
:100418007B6000233B60364B1B68354A43F48033CE
:100428001360334B1B6803F400333B607B68013374
:100438007B603B68002B03D17B68B3F5A04FF0D1FC
:100448002B4B1B6803F40033002B02D001233B60C5
:1004580001E000233B603B68012B42D1244B1B6C1D
:10046800234A43F080531364224B1B68214A43F408
:10047800404313601E4B1E4A9B6893601C4B9B684D
:100488001B4A43F400439360194B9B68184A43F492
:10049800A0539360164B184A5A60154B1B68144AB0
:1004A80043F08073136000BF114B1B6803F00073A7
:1004B800002BF9D0114B40F205721A600C4B9B6867
:1004C8000B4A23F003039360094B9B68084A43F0E7
:1004D8000203936000BF064B9B6803F00C03082BD4
:1004E800F9D100BF0C37BD465DF8047B704700BFEB
:1004F800003802400070004019544007003C024098
:100508000D488546FFF74AFF0C480D490D4A002360
:1005180002E0D458C4500433C4188C42F9D30A4AB0
:100528000A4C002301E013600432A242FBD300F01E
:1005380011F8FFF755FEFEE700000220000000203A
:1005480000000020C4050008000000201C00002056
:10055800FEE7000070B50D4D0D4C641BA41000267D
:10056800A64209D10B4D0C4C00F018F8641BA410DE
:100578000026A64205D170BD55F8043B98470136C0
:10058800EEE755F8043B98470136F2E7BC0500084A
:10059800BC050008BC050008C0050008F8B500BF88
:1005A800F8BC08BC9E467047F8B500BFF8BC08BC4C
:0405B8009E467047A4
:0405BC00CD01000865
:0405C000A901000885
:0400000508000509E1
:00000001FF
